{
  "_format": "hh-sol-artifact-1",
  "contractName": "BlindAuction",
  "sourceName": "contracts/BlindAuction.sol",
  "abi": [
    {
      "inputs": [
        {
          "internalType": "uint256",
          "name": "biddingTime",
          "type": "uint256"
        },
        {
          "internalType": "uint256",
          "name": "revealTime",
          "type": "uint256"
        },
        {
          "internalType": "address payable",
          "name": "beneficiaryAddress",
          "type": "address"
        }
      ],
      "stateMutability": "nonpayable",
      "type": "constructor"
    },
    {
      "inputs": [],
      "name": "AuctionEndAlreadyCalled",
      "type": "error"
    },
    {
      "inputs": [
        {
          "internalType": "uint256",
          "name": "time",
          "type": "uint256"
        }
      ],
      "name": "TooEarly",
      "type": "error"
    },
    {
      "inputs": [
        {
          "internalType": "uint256",
          "name": "time",
          "type": "uint256"
        }
      ],
      "name": "TooLate",
      "type": "error"
    },
    {
      "anonymous": false,
      "inputs": [
        {
          "indexed": false,
          "internalType": "address",
          "name": "winner",
          "type": "address"
        },
        {
          "indexed": false,
          "internalType": "uint256",
          "name": "highestBid",
          "type": "uint256"
        }
      ],
      "name": "AuctionEnded",
      "type": "event"
    },
    {
      "inputs": [],
      "name": "auctionEnd",
      "outputs": [],
      "stateMutability": "nonpayable",
      "type": "function"
    },
    {
      "inputs": [],
      "name": "beneficiary",
      "outputs": [
        {
          "internalType": "address payable",
          "name": "",
          "type": "address"
        }
      ],
      "stateMutability": "view",
      "type": "function"
    },
    {
      "inputs": [
        {
          "internalType": "bytes32",
          "name": "blindedBid",
          "type": "bytes32"
        }
      ],
      "name": "bid",
      "outputs": [],
      "stateMutability": "payable",
      "type": "function"
    },
    {
      "inputs": [],
      "name": "biddingEnd",
      "outputs": [
        {
          "internalType": "uint256",
          "name": "",
          "type": "uint256"
        }
      ],
      "stateMutability": "view",
      "type": "function"
    },
    {
      "inputs": [
        {
          "internalType": "address",
          "name": "",
          "type": "address"
        },
        {
          "internalType": "uint256",
          "name": "",
          "type": "uint256"
        }
      ],
      "name": "bids",
      "outputs": [
        {
          "internalType": "bytes32",
          "name": "blindedBid",
          "type": "bytes32"
        },
        {
          "internalType": "uint256",
          "name": "deposit",
          "type": "uint256"
        }
      ],
      "stateMutability": "view",
      "type": "function"
    },
    {
      "inputs": [],
      "name": "ended",
      "outputs": [
        {
          "internalType": "bool",
          "name": "",
          "type": "bool"
        }
      ],
      "stateMutability": "view",
      "type": "function"
    },
    {
      "inputs": [],
      "name": "highestBid",
      "outputs": [
        {
          "internalType": "uint256",
          "name": "",
          "type": "uint256"
        }
      ],
      "stateMutability": "view",
      "type": "function"
    },
    {
      "inputs": [],
      "name": "highestBidder",
      "outputs": [
        {
          "internalType": "address",
          "name": "",
          "type": "address"
        }
      ],
      "stateMutability": "view",
      "type": "function"
    },
    {
      "inputs": [
        {
          "internalType": "uint256[]",
          "name": "values",
          "type": "uint256[]"
        },
        {
          "internalType": "bool[]",
          "name": "fakes",
          "type": "bool[]"
        },
        {
          "internalType": "bytes32[]",
          "name": "secrets",
          "type": "bytes32[]"
        }
      ],
      "name": "reveal",
      "outputs": [],
      "stateMutability": "nonpayable",
      "type": "function"
    },
    {
      "inputs": [],
      "name": "revealEnd",
      "outputs": [
        {
          "internalType": "uint256",
          "name": "",
          "type": "uint256"
        }
      ],
      "stateMutability": "view",
      "type": "function"
    },
    {
      "inputs": [],
      "name": "withdraw",
      "outputs": [],
      "stateMutability": "nonpayable",
      "type": "function"
    }
  ],
  "bytecode": "0x60806040523480156200001157600080fd5b5060405162001343380380620013438339818101604052810190620000379190620000d8565b806000806101000a81548173ffffffffffffffffffffffffffffffffffffffff021916908373ffffffffffffffffffffffffffffffffffffffff16021790555082426200008591906200012e565b600181905550816001546200009b91906200012e565b6002819055505050506200022c565b600081519050620000bb81620001f8565b92915050565b600081519050620000d28162000212565b92915050565b600080600060608486031215620000ee57600080fd5b6000620000fe86828701620000c1565b93505060206200011186828701620000c1565b92505060406200012486828701620000aa565b9150509250925092565b60006200013b82620001bf565b91506200014883620001bf565b9250827fffffffffffffffffffffffffffffffffffffffffffffffffffffffffffffffff0382111562000180576200017f620001c9565b5b828201905092915050565b600062000198826200019f565b9050919050565b600073ffffffffffffffffffffffffffffffffffffffff82169050919050565b6000819050919050565b7f4e487b7100000000000000000000000000000000000000000000000000000000600052601160045260246000fd5b62000203816200018b565b81146200020f57600080fd5b50565b6200021d81620001bf565b81146200022957600080fd5b50565b611107806200023c6000396000f3fe60806040526004361061009c5760003560e01c8063423b217f11610064578063423b217f14610163578063900f080a1461018e57806391f90157146101b7578063957bb1e0146101e2578063a6e66477146101fe578063d57bde79146102295761009c565b806301495c1c146100a157806312fa6feb146100df5780632a24f46c1461010a57806338af3eed146101215780633ccfd60b1461014c575b600080fd5b3480156100ad57600080fd5b506100c860048036038101906100c39190610c0d565b610254565b6040516100d6929190610e86565b60405180910390f35b3480156100eb57600080fd5b506100f4610295565b6040516101019190610e6b565b60405180910390f35b34801561011657600080fd5b5061011f6102a8565b005b34801561012d57600080fd5b5061013661041a565b6040516101439190610e27565b60405180910390f35b34801561015857600080fd5b5061016161043e565b005b34801561016f57600080fd5b5061017861051b565b6040516101859190610eaf565b60405180910390f35b34801561019a57600080fd5b506101b560048036038101906101b09190610c49565b610521565b005b3480156101c357600080fd5b506101cc610893565b6040516101d99190610e0c565b60405180910390f35b6101fc60048036038101906101f79190610d16565b6108b9565b005b34801561020a57600080fd5b50610213610997565b6040516102209190610eaf565b60405180910390f35b34801561023557600080fd5b5061023e61099d565b60405161024b9190610eaf565b60405180910390f35b6004602052816000526040600020818154811061027057600080fd5b9060005260206000209060020201600091509150508060000154908060010154905082565b600360009054906101000a900460ff1681565b6002548042116102ef57806040517f2a35a3240000000000000000000000000000000000000000000000000000000081526004016102e69190610eaf565b60405180910390fd5b600360009054906101000a900460ff1615610336576040517f61cfdcf800000000000000000000000000000000000000000000000000000000815260040160405180910390fd5b7fdaec4582d5d9595688c8c98545fdd1c696d41c6aeaeb636737e84ed2f5c00eda600560009054906101000a900473ffffffffffffffffffffffffffffffffffffffff1660065460405161038b929190610e42565b60405180910390a16001600360006101000a81548160ff02191690831515021790555060008054906101000a900473ffffffffffffffffffffffffffffffffffffffff1673ffffffffffffffffffffffffffffffffffffffff166108fc6006549081150290604051600060405180830381858888f19350505050158015610416573d6000803e3d6000fd5b5050565b60008054906101000a900473ffffffffffffffffffffffffffffffffffffffff1681565b6000600760003373ffffffffffffffffffffffffffffffffffffffff1673ffffffffffffffffffffffffffffffffffffffff1681526020019081526020016000205490506000811115610518576000600760003373ffffffffffffffffffffffffffffffffffffffff1673ffffffffffffffffffffffffffffffffffffffff168152602001908152602001600020819055503373ffffffffffffffffffffffffffffffffffffffff166108fc829081150290604051600060405180830381858888f19350505050158015610516573d6000803e3d6000fd5b505b50565b60015481565b60015480421161056857806040517f2a35a32400000000000000000000000000000000000000000000000000000000815260040161055f9190610eaf565b60405180910390fd5b6002548042106105af57806040517f691e56820000000000000000000000000000000000000000000000000000000081526004016105a69190610eaf565b60405180910390fd5b6000600460003373ffffffffffffffffffffffffffffffffffffffff1673ffffffffffffffffffffffffffffffffffffffff16815260200190815260200160002080549050905080898990501461060557600080fd5b80878790501461061457600080fd5b80858590501461062357600080fd5b600080600090505b8281101561083f576000600460003373ffffffffffffffffffffffffffffffffffffffff1673ffffffffffffffffffffffffffffffffffffffff16815260200190815260200160002082815481106106ac577f4e487b7100000000000000000000000000000000000000000000000000000000600052603260045260246000fd5b9060005260206000209060020201905060008060008e8e868181106106fa577f4e487b7100000000000000000000000000000000000000000000000000000000600052603260045260246000fd5b905060200201358d8d8781811061073a577f4e487b7100000000000000000000000000000000000000000000000000000000600052603260045260246000fd5b905060200201602081019061074f9190610ced565b8c8c88818110610788577f4e487b7100000000000000000000000000000000000000000000000000000000600052603260045260246000fd5b905060200201359250925092508282826040516020016107aa93929190610dcf565b604051602081830303815290604052805190602001208460000154146107d3575050505061082c565b8360010154866107e39190610eca565b9550811580156107f7575082846001015410155b1561081b5761080633846109a3565b1561081a5782866108179190610f20565b95505b5b6000801b8460000181905550505050505b808061083790610fb8565b91505061062b565b503373ffffffffffffffffffffffffffffffffffffffff166108fc829081150290604051600060405180830381858888f19350505050158015610886573d6000803e3d6000fd5b5050505050505050505050565b600560009054906101000a900473ffffffffffffffffffffffffffffffffffffffff1681565b60015480421061090057806040517f691e56820000000000000000000000000000000000000000000000000000000081526004016108f79190610eaf565b60405180910390fd5b600460003373ffffffffffffffffffffffffffffffffffffffff1673ffffffffffffffffffffffffffffffffffffffff1681526020019081526020016000206040518060400160405280848152602001348152509080600181540180825580915050600190039060005260206000209060020201600090919091909150600082015181600001556020820151816001015550505050565b60025481565b60065481565b600060065482116109b75760009050610ad5565b600073ffffffffffffffffffffffffffffffffffffffff16600560009054906101000a900473ffffffffffffffffffffffffffffffffffffffff1673ffffffffffffffffffffffffffffffffffffffff1614610a885760065460076000600560009054906101000a900473ffffffffffffffffffffffffffffffffffffffff1673ffffffffffffffffffffffffffffffffffffffff1673ffffffffffffffffffffffffffffffffffffffff1681526020019081526020016000206000828254610a809190610eca565b925050819055505b8160068190555082600560006101000a81548173ffffffffffffffffffffffffffffffffffffffff021916908373ffffffffffffffffffffffffffffffffffffffff160217905550600190505b92915050565b600081359050610aea81611075565b92915050565b60008083601f840112610b0257600080fd5b8235905067ffffffffffffffff811115610b1b57600080fd5b602083019150836020820283011115610b3357600080fd5b9250929050565b60008083601f840112610b4c57600080fd5b8235905067ffffffffffffffff811115610b6557600080fd5b602083019150836020820283011115610b7d57600080fd5b9250929050565b60008083601f840112610b9657600080fd5b8235905067ffffffffffffffff811115610baf57600080fd5b602083019150836020820283011115610bc757600080fd5b9250929050565b600081359050610bdd8161108c565b92915050565b600081359050610bf2816110a3565b92915050565b600081359050610c07816110ba565b92915050565b60008060408385031215610c2057600080fd5b6000610c2e85828601610adb565b9250506020610c3f85828601610bf8565b9150509250929050565b60008060008060008060608789031215610c6257600080fd5b600087013567ffffffffffffffff811115610c7c57600080fd5b610c8889828a01610b84565b9650965050602087013567ffffffffffffffff811115610ca757600080fd5b610cb389828a01610af0565b9450945050604087013567ffffffffffffffff811115610cd257600080fd5b610cde89828a01610b3a565b92509250509295509295509295565b600060208284031215610cff57600080fd5b6000610d0d84828501610bce565b91505092915050565b600060208284031215610d2857600080fd5b6000610d3684828501610be3565b91505092915050565b610d4881610f66565b82525050565b610d5781610f54565b82525050565b610d6681610f78565b82525050565b610d7d610d7882610f78565b611001565b82525050565b610d8c81610f84565b82525050565b610da3610d9e82610f84565b611013565b82525050565b610db281610fae565b82525050565b610dc9610dc482610fae565b61101d565b82525050565b6000610ddb8286610db8565b602082019150610deb8285610d6c565b600182019150610dfb8284610d92565b602082019150819050949350505050565b6000602082019050610e216000830184610d4e565b92915050565b6000602082019050610e3c6000830184610d3f565b92915050565b6000604082019050610e576000830185610d4e565b610e646020830184610da9565b9392505050565b6000602082019050610e806000830184610d5d565b92915050565b6000604082019050610e9b6000830185610d83565b610ea86020830184610da9565b9392505050565b6000602082019050610ec46000830184610da9565b92915050565b6000610ed582610fae565b9150610ee083610fae565b9250827fffffffffffffffffffffffffffffffffffffffffffffffffffffffffffffffff03821115610f1557610f14611039565b5b828201905092915050565b6000610f2b82610fae565b9150610f3683610fae565b925082821015610f4957610f48611039565b5b828203905092915050565b6000610f5f82610f8e565b9050919050565b6000610f7182610f8e565b9050919050565b60008115159050919050565b6000819050919050565b600073ffffffffffffffffffffffffffffffffffffffff82169050919050565b6000819050919050565b6000610fc382610fae565b91507fffffffffffffffffffffffffffffffffffffffffffffffffffffffffffffffff821415610ff657610ff5611039565b5b600182019050919050565b600061100c82611027565b9050919050565b6000819050919050565b6000819050919050565b600061103282611068565b9050919050565b7f4e487b7100000000000000000000000000000000000000000000000000000000600052601160045260246000fd5b60008160f81b9050919050565b61107e81610f54565b811461108957600080fd5b50565b61109581610f78565b81146110a057600080fd5b50565b6110ac81610f84565b81146110b757600080fd5b50565b6110c381610fae565b81146110ce57600080fd5b5056fea2646970667358221220a118c27e5836944718114bbc5c224973e05da1e852aaf88a0ea57b697bd21d0264736f6c63430008040033",
  "linkReferences": {},
  "deployedLinkReferences": {}
}